:100000000C9434000C9446000C9446000C9446006A
:100010000C9446000C9446000C9446000C94460048
:100020000C9446000C9446000C9446000C94480036
:100030000C9446000C9446000C9446000C94460028
:100040000C9446000C9446000C9446000C94460018
:100050000C9446000C9446000C9446000C94460008
:100060000C9446000C94460011241FBECFEFD8E03C
:10007000DEBFCDBF21E0A0E0B1E001C01D92A730FE
:10008000B207E1F70E94F8000C9428010C940000DC
:100090001F920F920FB60F9211242F933F935F93ED
:1000A0006F937F938F939F93AF93BF93EF93FF9340
:1000B0009BB180910601880F880F937E892B8BB9A5
:1000C00080910601823091F168F4811139C08091EC
:1000D00003019091040160E177E20E940E016093B8
:1000E00005011AC0833049F08430B1F480910301D6
:1000F000909104016AE070E00BC08091030190913F
:1001000004012AE030E0B9010E940E01CB01B901DF
:100110000E940E0180930501E0910501EA3008F08C
:1001200063C0F0E0E65DFE4F0C9422018091030174
:100130009091040164E670E00E940E01CB01DACFD9
:10014000809103019091040168EE73E0F5CF5F9810
:1001500088B1807C866088B980910601843008F07F
:1001600045C08F5F80930601809103019091040147
:1001700001969093040180930301FF91EF91BF9149
:10018000AF919F918F917F916F915F913F912F914F
:100190000F900FBE0F901F9018955F9A88B1807CCA
:1001A0008B61D9CF5F9A88B1807C8F60D4CF5F9A02
:1001B00088B1807C8662CFCF5F9A88B1807C8D6267
:1001C000CACF5F9A88B1807C8D63C5CF5F9888B1B4
:1001D000807C8760C0CF5F9A88B18F63BCCF5F9A05
:1001E00088B1807C8762B7CF5F98F6CF80E0BACFC6
:1001F0008FE387B98CED8AB9109280008CE08093F0
:10020000810082E080936F008EE390E090938900FC
:10021000809388001092C0007894FFCFAA1BBB1B6C
:1002200051E107C0AA1FBB1FA617B70710F0A61BF6
:10023000B70B881F991F5A95A9F780959095BC0117
:10024000CD010895EE0FFF1F0590F491E02D099464
:10025000F894FFCFF400A700CD00D200D700DC0057
:08026000E100E600EB00EF00F5
:00000001FF
